:100000000C9489050C94B1050C94B1050C94B105C0
:100010000C94B1050C94B1050C94B1050C94B10588
:100020000C94B1050C94B1050C940F0D0C942B0994
:100030000C94B1050C94B1050C94B1050C94B10568
:100040000C94B1050C94B1050C94B1050C94B10558
:100050000C94B1050C94B1050C94B1050C944E07A9
:100060000C94B1050C94B1050C94B1050C94B10538
:100070000C94B1050C94B1050C94B1050C94B10528
:100080000C94B1050C94B1050C94B1050C94B10518
:100090000C94B1050C94B1050C94B1050C94B10508
:1000A0000C94B1050C94B1050C94B105F0F89C8E3C
:1000B0008783878E9CF8F00000FEFF030303030391
:1000C000070EFCF80000FEFF0303030303070EFC0A
:1000D000F80000FFFF00000000000000FFFF00002C
:1000E000FEFF8383838383C7EE7C380000F8FC0E19
:1000F00007030303070EFCF800003F7FE0C0808089
:10010000C0E07F3FFFFF01010101010101FFFF008E
:1001100000FFFF0C0C0C0C1C3E77E3C100007FFFBE
:10012000C0C0C0C0C0E0703F1F00001F3F70E0C0F3
:10013000C0C0E0703F1F00007FFFC1C1C1C1C1E36B
:10014000773E1C00001F3F70E0C0C0C0E0703F1F42
:10015000000000000001FFFF01000000D5F08D1439
:10016000A1C881CFD9F1AF2000070605040100081E
:100170000A0B0C0D09804000000000000000000088
:10018000000000000000000000000000000000006F
:10019000000000000000000000000000000000005F
:1001A000000000000000000000000000000000004F
:1001B000000000000000000000000000000000003F
:1001C000000000000000000000000000000000002F
:1001D000000000000000000000000000000000001F
:1001E000000000000000000000000000000000000F
:1001F00000000000000000000000000000000000FF
:1002000000000000000000000080402010081020C6
:10021000408000000000000000000000000000001E
:1002200000000000000000000000000000000000CE
:100230000080402020E020204080000000000000DE
:1002400000000000000000000000000000000000AE
:1002500000000000000000804020100810204080B6
:10026000000000000000000000000000000000008E
:100270000000000000000000C040404040404040FE
:10028000404040404040407E41407C4241414142EC
:100290007C40417E404040404040404040404040E3
:1002A000404040404040404040404040404040404E
:1002B000407F4949497F4949497F4040404040404B
:1002C000404040404040404040404040404040402E
:1002D00040404040407E41407C42414141427C4060
:1002E000417E4040404040404040404040404040CF
:1002F0004040404040C000000101010101010101F6
:1003000001010101010101010101010103020301D8
:1003100001010101010101010101010101010101CD
:1003200001010101010101010302030101010101B8
:1003300001010101010101010101010101010101AD
:100340000101010302030101010101010101010198
:10035000010101010101010101018103FE0301010C
:10036000010101010101010101010101010101017D
:100370000101010101010000808080808080808077
:10038000808080808080808080808080808080806D
:10039000808080808080808080808080808080805D
:1003A000808080808080808080808080808080804D
:1003B000000000000000000000000000000000003D
:1003C000808080808080808080808080808080802D
:1003D000808080808080808080808381FF8080809A
:1003E000808080808080808080808080808080800D
:1003F00080808080808000000302020202020202EC
:1004000002020202020202020202020202020202CC
:100410000206FC06020202020202020202020202BA
:1004200002020202020202020202020202020E089A
:1004300007000000000000000000000000000003B2
:100440000406020202020202020202020202020286
:100450000202020202020202020202060406020272
:10046000020202020202020202020202020202026C
:10047000020202020203000000000000000000006F
:10048000000000000000000000000000000000006C
:100490000000FF0207000000000000000000000054
:1004A000000000000000000000000000000000004C
:1004B000000000000000000000000000000000003C
:1004C000000000000000000000000000000000002C
:1004D000000000000000000000000000000000001C
:1004E000000000000000000000000000000000000C
:1004F00000000000000000003F21212121212121D6
:1005000021212121212121212121212121212121DB
:1005100021212121212121212121212121212121CB
:1005200021212121212121212121212121212121BB
:100530003E08080808080808080808080808083ECF
:10054000212121212121212121212121212121219B
:10055000212121212121212121212121212121218B
:10056000212121212121212121212121212121217B
:1005700021212121213F000808279FF77EF69F2790
:1005800007000E132F7E3F1F0E01020408102040AB
:100590008000000000003E5B4F5B3E3E6B4F6B3EB9
:1005A0001C3E7C3E1C183C7E3C181C577D571C1C76
:1005B0005E7F5E1C00183C1800FFE7C3E7FF0018D1
:1005C000241800FFE7DBE7FF30483A060E262979BA
:1005D0002926407F050507407F05253F5A3CE73C1B
:1005E0005A7F3E1C1C08081C1C3E7F14227F2214CC
:1005F0005F5F005F5F06097F017F006689956A6023
:100600006060606094A2FFA29408047E0408102039
:100610007E201008082A1C08081C2A08081E101032
:1006200010100C1E0C1E0C30383E3830060E3E0EDC
:1006300006000000000000005F0000000700070047
:10064000147F147F14242A7F2A122313086462362D
:10065000495620500008070300001C2241000041B9
:10066000221C002A1C7F1C2A08083E0808008070F3
:100670003000080808080800006060002010080426
:10068000023E5149453E00427F4000724949494679
:100690002141494D331814127F1027454545393CF7
:1006A0004A494931412111090736494949364649E4
:1006B00049291E0000140000004034000000081406
:1006C000224114141414140041221408020159097F
:1006D000063E415D594E7C1211127C7F49494936D4
:1006E0003E414141227F4141413E7F494949417F4D
:1006F000090909013E414151737F0808087F004103
:100700007F41002040413F017F081422417F40404B
:1007100040407F021C027F7F0408107F3E41414120
:100720003E7F090909063E4151215E7F091929468C
:10073000264949493203017F01033F4040403F1FA2
:100740002040201F3F4038403F63140814630304D7
:100750007804036159494D43007F41414102040837
:100760001020004141417F0402010204404040400A
:1007700040000307080020545478407F2844443840
:100780003844444428384444287F3854545418008A
:10079000087E090218A4A49C787F08040478004409
:1007A0007D40002040403D007F1028440000417FF4
:1007B00040007C047804787C08040478384444447D
:1007C00038FC1824241818242418FC7C0804040875
:1007D000485454542404043F44243C4040207C1C8E
:1007E0002040201C3C4030403C44281028444C9081
:1007F00090907C4464544C440008364100000077DB
:100800000000004136080002010204023C262326B3
:100810003C1EA1A161123A4040207A3854545559E7
:10082000215555794121545478412155547840201F
:10083000545579400C1E5272123955555559395438
:1008400054545939555454580000457C41000245D0
:100850007D420001457C40F0292429F0F02825281C
:10086000F07C545545002054547C547C0A097F493F
:1008700032494949323248484832324A4848303A87
:100880004141217A3A42402078009DA0A07D394420
:100890004444393D4040403D3C24FF2424487E49A7
:1008A00043662B2FFC2F2BFF0929F620C0887E09D9
:1008B0000320545479410000447D413048484A3275
:1008C000384040227A007A0A0A727D0D19317D265D
:1008D00029292F28262929292630484D4020380843
:1008E00008080808080808382F10C8ACBA2F1028C4
:1008F00034FA00007B000008142A142222142A145F
:10090000089500220095AA005500AAAA55AA55AA42
:10091000000000FF00101010FF00141414FF00105E
:1009200010FF00FF1010F010F0141414FC00141449
:10093000F700FF0000FF00FF1414F404FC14141768
:10094000101F10101F101F1414141F00101010F08F
:10095000000000001F101010101F10101010F010D9
:10096000000000FF101010101010101010FF1000E9
:100970000000FF140000FF00FF00001F1017000020
:10098000FC04F414141710171414F404F40000FFFA
:1009900000F714141414141414F700F71414141793
:1009A0001410101F101F141414F4141010F010F071
:1009B00000001F101F0000001F14000000FC1400A6
:1009C00000F010F01010FF10FF141414FF1410109A
:1009D000101F00000000F010FFFFFFFFFFF0F0F01D
:1009E000F0F0FFFFFF0000000000FFFF0F0F0F0FF0
:1009F0000F38444438447C2A2A3E147E02020606FC
:100A0000027E027E0263554941633844443C0440FF
:100A10007E201E2006027E020299A5E7A5991C2AC7
:100A2000492A1C4C7201724C304A4D4D3030487886
:100A30004830BC625A463D3E494949007E010101A9
:100A40007E2A2A2A2A2A44445F444440514A444088
:100A500040444A51400000FF0103E080FF000008CD
:100A6000086B6B083612362436060F090F06000095
:100A700018180000001010003040FF0101001F0195
:100A8000011E00191D1712003C3C3C3C00000000F8
:100A900000080B000202020100090400000102022A
:100AA00000000524001001052401010104240206B0
:100AB0000524060001070581031000400904010018
:100AC000020A000000070502024000000705830239
:100AD0004000000403090441726475696E6F204C84
:100AE0004C430041726475626F790012010002008C
:100AF0000000404123368000010102030112010081
:100B000002EF02014041233680000101020301008F
:100B1000AD1111241FBECFEFDAE0DEBFCDBF25E05F
:100B2000AEE3B1E001C01D92AC3CB207E1F711E0C9
:100B3000A0E0B1E0E0E8F5E202C005900D92AE332E
:100B4000B107D9F715E0C9E8D5E004C02197FE0147
:100B50000E94DE11C838D107C9F70E94810D0C949C
:100B6000BE120C940000CF92DF92EF92FF920F938F
:100B70001F93CF93DF936C017A018B01C0E0D0E02B
:100B8000CE15DF0589F0D8016D918D01D601ED916B
:100B9000FC910190F081E02DC6010995892B11F49B
:100BA0007E0102C02196ECCFC701DF91CF911F914A
:100BB0000F91FF90EF90DF90CF9008953FB7F8949A
:100BC00080914A0190914B01A0914C01B0914D014F
:100BD00026B5A89B05C02F3F19F00196A11DB11D98
:100BE0003FBFBA2FA92F982F8827820F911DA11DD3
:100BF000B11DBC01CD0142E0660F771F881F991F10
:100C00004A95D1F708952F923F924F925F926F923B
:100C10007F928F929F92AF92BF92CF92DF92EF928C
:100C2000FF920F931F93CF93DF93CDB7DEB7279734
:100C30000FB6F894DEBF0FBECDBF9B838A836A30A8
:100C4000A1F4DC0155962C91559751968D919C916C
:100C50005297B8E02B9F800D911D1124EA81FB81F2
:100C6000928B818B108A1786C1C06D3009F4BEC08B
:100C7000AA81BB8155964C91559754966C90549788
:100C80006E8253967C9053977F825196CD90DC90E4
:100C900052971F968D919C91509780389105C4F082
:100CA000AA81BB8155962C915597422F50E01F96F3
:100CB0008D919C915097B6E02B9F800D911D112432
:100CC000EA81FB81908B8787268921117AC08EC0AB
:100CD000F0E4CF16D10424F79C0155E0459F200D88
:100CE000311D112412161306DCF6242E312C960128
:100CF000A8E04A9F200D311D11241216130684F618
:100D0000B5E06B9FB0011124FB01EF56FA4F2F01A4
:100D100050E0F201B490553009F4B12C7601B8E0FE
:100D20009B2EB0FC02C08E8001C08F8081100BC052
:100D30006E807F80671007C0B6949A94E20CF31C13
:100D40009110EFCF33C09C012983622F681B641779
:100D500098F7B701E62FEE19E41728F5203831058A
:100D6000F8F460347105E0F48B01E9E8F5E0A0E106
:100D70006A2E7980609ED001A0781124A70D07709B
:100D8000E00FF11DA490BD83AC83A85ABE4F88200C
:100D900019F0EC91AE2A03C0A094EC91AE22AC9273
:100DA0006F5F7F4FD7CF2F5F3F4FCECF5F5F820DFB
:100DB000931D92012F5F3F4F2901563009F0A9CFB3
:100DC0006FCF6AEF64039001659F300D11242058A6
:100DD0003F4F2817390754F48A819B81DC01ED913C
:100DE000FC910190F081E02D6AE0099581E090E0AE
:100DF00027960FB6F894DEBF0FBECDBFDF91CF911F
:100E00001F910F91FF90EF90DF90CF90BF90AF9028
:100E10009F908F907F906F905F904F903F902F901A
:100E2000089508950E94E4118F929F92AF92BF920D
:100E3000CF92DF92EF92FF926B017C010E94DE0560
:100E40004B015C01C114D104E104F104F1F00E94F2
:100E5000DE05DC01CB0188199909AA09BB09883E86
:100E60009340A105B10570F321E0C21AD108E10851
:100E7000F10888EE880E83E0981EA11CB11CC114F5
:100E8000D104E104F10419F7DDCFFF90EF90DF907A
:100E9000CF90BF90AF909F908F9008951F920F9228
:100EA0000FB60F9211242F933F938F939F93AF937D
:100EB000BF9380913E0190913F01A0914001B0917C
:100EC00041013091490123E0230F2D3720F4019691
:100ED000A11DB11D05C026E8230F0296A11DB11D5D
:100EE0002093490180933E0190933F01A0934001DC
:100EF000B093410180914A0190914B01A0914C0126
:100F0000B0914D010196A11DB11D80934A019093AE
:100F10004B01A0934C01B0934D01BF91AF919F91B4
:100F20008F913F912F910F900FBE0F901F901895AA
:100F30008F929F92AF92BF92CF92DF92EF92FF92E9
:100F40000F931F93CF93DF9300D0CDB7DEB7DC01B3
:100F50004115510509F4CBC0FA01D4903196949112
:100F60004E5F5F4F8D2C912C2223E9F0E92FE695FF
:100F7000E695E695EE2EF12CE1E0F0E0892F877002
:100F800011F4E0E0F0E0EE0DFF1D8E9E70018F9EEB
:100F9000F00C9E9EF00C11242E9DF0012F9DF00D63
:100FA00011244E0F5F1F5D01A80CB91C1A141B04FD
:100FB0000CF09DC0A038B1050CF099C09B01290F21
:100FC000311D121613060CF092C0603471050CF03E
:100FD0008EC04115510509F48AC0F62FF770EF2E27
:100FE0009B0177FF02C0295F3F4F83E0359527952E
:100FF0008A95E1F7F22F77FF04C0EE2011F0FFEFA2
:10100000F20FB7FF05C0662777276A1B7B0B02C06C
:1010100060E070E000E8A016B10424F080E8F82E4B
:10102000FA1A01C0FD2CF61A2F2F0F2E000C330BCD
:10103000FF3F1CF4C22EC09401C0C12CE1E0892FF7
:10104000877009F4E0E09695969596959E0F290F86
:10105000311D2930310514F098E09F1B8C2D8F0F26
:101060009D01182F00E81003200D311D1124260FBB
:10107000371FCD9C600D711D1124640F751F41E059
:1010800050E00E2C02C0440F551F0A94E2F79F0F48
:10109000891769F1D901A85ABE4FA12CB12CAF1400
:1010A00000F5FB01EA0DFB1DE491E49F6001E59F63
:1010B000D00C1124DA82C98287FD03C0EC91CE2ABC
:1010C000CC92EE2049F087303CF4FD01E058FF4F10
:1010D000C080DA80DC28D0821FEFA11AB10A1196F5
:1010E000DECF8F5F680D791D20583F4FD1CF0F9015
:1010F0000F90DF91CF911F910F91FF90EF90DF90B4
:10110000CF90BF90AF909F908F9008952D9A0895A3
:10111000BC0180E090E00C9414078FB18095807F33
:10112000669B88601C9B846008950C9445124091D6
:1011300053015091540120915101309152014217B5
:101140005307B4F49091E8009570E1F39091E800B2
:1011500092FD19C08093F100809153019091540148
:1011600001968F739927892B19F48EEF8093E800ED
:101170008091530190915401019690935401809372
:10118000530181E0089580E00895DF92EF92FF928D
:101190000F931F93CF93DF93D82E8A017B01E40E28
:1011A000F51EEB01CE15DF0571F0D7FE03C0FE0181
:1011B000849101C088810E94970821968111F2CF05
:1011C0008FEF9FEF01C0C801DF91CF911F910F9169
:1011D000FF90EF90DF900895615030F02091F10082
:1011E000FC0120830196F8CF289884E6809356016D
:1011F00008950F931F93CF93DF931F92CDB7DEB760
:1012000082E0898342E450E061E97AE080E80E946C
:10121000C5080E94FB0CDC0112960D911C911397DE
:101220000115110569F0D801ED91FC910280F3815F
:10123000E02DBE016F5F7F4FC801099597FF07C082
:1012400089810F90DF91CF911F910F910895F8013F
:1012500000851185E5CF1F920F920FB60F921124D2
:10126000CF92DF92EF92FF920F931F932F933F93B2
:101270004F935F936F937F938F939F93AF93BF939E
:10128000EF93FF93CF93DF93CDB7DEB76C97DEBFBD
:10129000CDBF1092E9008091E80083FFFAC168E0B9
:1012A000CE0145960E94EC0882EF8093E8008D897C
:1012B00087FF05C09091E80090FFFCCF03C09EEF30
:1012C0009093E800982F907609F0C6C09E892F89E8
:1012D000188D91110CC0803829F480914F018093B2
:1012E000F10002C01092F1001092F10047C1422FAC
:1012F00050E0512B913051F4811140C141305105E2
:1013000009F03CC180914F018D7F0BC0933061F497
:10131000811134C14130510509F030C180914F0134
:10132000826080934F012AC1953041F48091E8009A
:1013300080FFFCCF20682093E30020C1963009F0A5
:101340005FC0EB8CFC8C1092E9001092540110925B
:101350005301123091F510925201109251010E94E6
:10136000F90899E0BE016F5F7F4FDB01E92F1D9205
:10137000EA95E9F799831A8391E09E8390EA98872A
:101380009AEF99872091530130915401275F3F4F85
:101390003C832B838D831092E900109254011092AC
:1013A0005301F0925201E092510149E050E080E097
:1013B0000E94C5080E94F908E1C0F0925201E09233
:1013C00051010E94FB0CDC011296ED90FC901397EA
:1013D000E114F10409F4C0C0D701ED91FC9104803F
:1013E000F581E02DBE016B5E7F4FC7010995009727
:1013F00019F00CF0C3C0C6C0F701E084F184E8CF57
:10140000973009F4BFC0983021F481E08093F10057
:10141000B5C0993009F0B2C0837009F0B3C0E7E1FC
:10142000F1E081E021E036E39081992361F080933F
:10143000E9002093EB0091919093EC003093ED0044
:101440008F5F873089F78EE78093EA001092EA0079
:101450008F898093570192C08B8D9C8D1092E900EB
:1014600010925401109253019093520180935101B4
:10147000898D811156C08E899D89913A59F48132A6
:1014800009F080C047E050E06AE071E080E00E942F
:10149000C50874C0913209F075C0833289F4888D13
:1014A00090E0982F88272F89822BA0E0B0E08093CE
:1014B000060190930701A0930801B09309015EC053
:1014C000803269F48091E80082FFFCCF67E08AE017
:1014D00091E00E94EC088BEF8093E80006C0823216
:1014E00009F04CC08F898093110180914E018823AF
:1014F00019F0EEEFFAE002C0E0E0F8E080910A01B6
:1015000090910B01A0910C01B0910D01803B944092
:10151000A105B10509F088C08091110180FFA0C02C
:1015200083C00E94FB0CDC0112960D911C91139755
:101530000115110539F1D801ED91FC910190F0816F
:10154000E02DBE016B5E7F4FC8010995811116C069
:10155000F80100851185ECCF1130C1F0133091F402
:101560008F89882309F455C08230E9F440E867E0A8
:1015700083EE9AE00E947011882321F08EEF809311
:10158000E80087C081E28093EB0083C08B8D9C8D47
:10159000089711F41093500180915001811136C0C9
:1015A0006BEE7AE038C0813029F440E86BE087EDDB
:1015B0009AE0E0CF833031F70E94FB0CDC011296F9
:1015C000ED90FC9013978E010F5F1F4F6801E1149F
:1015D000F10479F0D701ED91FC910680F781E02DBF
:1015E000B801C7010995080F111DF701E084F184C6
:1015F000EECFD8011C92F60101900020E9F7319757
:10160000BF016C197D0940E0C601B4CF6DEF7AE0EF
:1016100002C063ED7AE06115710509F4B3CFFB01F7
:10162000449150E080E833CF0FB6F894A8958091AC
:101630006000886180936000109260000FBEA895E2
:10164000EE3F2AE0F20739F08091FE0A9091FF0AFE
:101650009183808393CF1092FF0A1092FE0A8ECF5F
:10166000EE3F8AE0F80731F0808191819093FF0A84
:101670008093FE0A87E797E7918380839BE088E168
:101680000FB6F894A895809360000FBE9093600009
:1016900075CF6C960FB6F894DEBF0FBECDBFDF914D
:1016A000CF91FF91EF91BF91AF919F918F917F91DA
:1016B0006F915F914F913F912F911F910F91FF90EB
:1016C000EF90DF90CF900F900FBE0F901F90189566
:1016D000FC0180915701811103C08FEF9FEF0895A6
:1016E0009FB7F89482E08093E9002091F20030E007
:1016F0001216130614F421E030E02115310559F0DB
:10170000289884E6809356018091F100808380912F
:10171000F200882319F09FBFC90108958BE68093DA
:10172000E800F9CFCF93DF931F92CDB7DEB769837F
:10173000DC01ED91FC910280F381E02D41E050E06D
:10174000BE016F5F7F4F09950F90DF91CF91089594
:1017500083E08093E9008091F200882319F08AE306
:101760008093E8000895CF93DF931F92CDB7DEB743
:10177000FC018485958597FD05C02FEF3FEF3587E8
:1017800024870BC0CE0101960E94680B019719F4C3
:10179000898190E002C08FEF9FEF0F90DF91CF9192
:1017A00008950F931F93CF93DF931F92CDB7DEB7AA
:1017B0008C01FC018485958597FF0EC0CE010196B2
:1017C0000E94680B019719F4298130E002C02FEFC5
:1017D0003FEFF80135872487F801848595850F90C0
:1017E000DF91CF911F910F910895FC01848595851C
:1017F00097FD0BC09FB7F89482E08093E900809139
:10180000F2009FBF90E0019608959FB7F89482E0A0
:101810008093E9008091F2009FBF90E008958F923D
:101820009F92AF92BF92CF92DF92EF92FF920F936F
:101830001F93CF93DF935C016B018A0180911101AB
:10184000882309F45EC080915701882309F459C0A8
:101850008091550180FF05C08091E00082608093F7
:10186000E000E8018AEFF82E93E0E92E2FE3822EC4
:101870003AE3932E209709F43DC08FB7F894E09295
:10188000E9009091E80095FF06C09091F200282DA4
:10189000291B922F01C090E08FBF91110AC0FA94CA
:1018A000FF2079F161E070E080E090E00E94140791
:1018B000E1CF292F30E0C217D3070CF49C2F8FB74C
:1018C000F894E092E9002091E80025FF11C0292F4B
:1018D00030E0C21BD30BF601915020F041914093B0
:1018E000F100FACFC20ED31E9091E80095FF13C00D
:1018F0008FBFC0CF5D9884E680936F0510161106E8
:1019000044F081E090E0F5019383828380E090E0F1
:1019100005C0C80103C09092E800EACFDF91CF91E3
:101920001F910F91FF90EF90DF90CF90BF90AF90FD
:101930009F908F9008958F929F92AF92BF920F9336
:101940001F93CF93DF93CDB7DEB7A1970FB6F8946F
:10195000DEBF0FBECDBF19A2423008F44AE08E01AF
:101960000F5D1F4F842E912CA12CB12CA501940149
:101970000E948D12E62FB901CA0101501109EA3007
:1019800014F4E05D01C0E95CD801EC93232B242B17
:10199000252B61F70115110571F0F8010190002068
:1019A000E9F73197AF01401B510BB80188E595E08D
:1019B0000E94B30502C080E090E0A1960FB6F894B3
:1019C000DEBF0FBECDBFDF91CF911F910F91BF90B2
:1019D000AF909F908F900895E8E5F1E0A0E0B8E027
:1019E00000800EBC8111012C1197A0FDFDCF01924A
:1019F000B9F70DB408958091740581110DC082E08E
:101A00008093700584E080937105109273051092A5
:101A1000720581E08093740580E795E008951F9238
:101A20000F920FB60F9211248F939F938091E10034
:101A30009091E100937F9093E10083FF0FC010929B
:101A4000E90091E09093EB001092EC0092E3909308
:101A5000ED001092570198E09093F00082FF20C0B3
:101A600093E09093E9009091F200992319F09AE3A2
:101A70009093E80090916F05992339F090916F054C
:101A8000915090936F05992389F190915601992374
:101A900039F090915601915090935601992341F15C
:101AA00084FF10C08091E2008E7E81608093E2000E
:101AB0008091E1008F7E8093E100809155018E7EC0
:101AC000806111C080FF16C08091E2008E7E80612F
:101AD0008093E2008091E1008E7E8093E10080910E
:101AE00055018E7E81608093550104C05D9ACDCFF3
:101AF000289AD6CF9F918F910F900FBE0F901F9075
:101B00001895789484B5826084BD84B5816084BD65
:101B100085B5826085BD85B5816085BD80916E008B
:101B2000816080936E0010928100809181008260BC
:101B300080938100809181008160809381008091F9
:101B4000800081608093800080919100826080930A
:101B5000910080919100816080939100809190002C
:101B60008160809390008091C10084608093C10067
:101B70008091C10082608093C1008091C10081602A
:101B80008093C1008091C30081608093C3008091E5
:101B9000C00082608093C0008091C2008160809309
:101BA000C20080917A00846080937A0080917A00EC
:101BB000826080937A0080917A00816080937A00BD
:101BC00080917A00806880937A0010925701109279
:101BD0004F01109255018091D70081608093D7000A
:101BE00080EA8093D80089B5806189BD89B582601B
:101BF00089BD09B400FEFDCF61E070E080E090E0B7
:101C00000E9414078091D8008F7C80618093D80057
:101C10008091E000807F8093E0008091E1008E7EE3
:101C20008093E1008DE08093E200559A209AEEEFD8
:101C3000FFE7859194918B3F9C4D19F481E080934F
:101C40004E0181EC80937C0085B1806F85B984B1B1
:101C5000877E84B984B1876E84B95E9A5F988AB1B1
:101C6000806D8AB9769A6E9881B3806F81BB8998AE
:101C700080B38D7080BB80E58CBD81E08DBD85E03B
:101C800090E00E9488085F9A85E090E00E948808B2
:101C90005E985C98ECE5F1E08DE08E0F94919EBD2E
:101CA00000000DB407FEFDCF31968E13F7CF5C9A7E
:101CB00081E8809364008091650081608093650075
:101CC00080E00E94EC0C0E948D0887FF24C05C9885
:101CD00085EA8EBD00000DB407FEFDCF5C9A2E98FC
:101CE0002F982D988091640080628093640081E039
:101CF00083BF889513BEFCCF2D980E948D088478F1
:101D0000843871F00E948D088471843131F188EC3F
:101D100090E00E9488080E948D0882FDEDCF3AC0B5
:101D20000E94860888EC90E00E9488082F9882E044
:101D300090E00E9445128F3F29F06FEF82E090E023
:101D40000E944D1284EF91E00E9488082F9A0E9411
:101D50008D0884788438D9F3D5CF0E94860888EC22
:101D600090E00E9488082E9882E090E00E94451240
:101D7000882329F060E082E090E00E944D1284EF19
:101D800091E00E9488082E9A0E948D088471843107
:101D9000D9F3BDCF0E94860882E090E00E944512F0
:101DA000882331F03E9A3F9A81E08093420104C03B
:101DB000109242013E983F9881E090E00E94950881
:101DC00082FB772470F881FF8CC071102E98C0EFD1
:101DD000DFEF08E010E00E948D0886FF04C02E9A15
:101DE0002F9A2D9A7EC0772029F0C430D10511F4A6
:101DF0002E9A2F9881E00E94EC0C9E01D7FF04C020
:101E0000222733272C1B3D0B27703327CE01D7FD0C
:101E1000079653E0959587955A95E1F7D7FF05C04A
:101E20000197A801421B530B9A017C01F694FE2CEA
:101E3000EE24F794E79460E070E02801421A530A18
:101E4000F701E058FF4F5F018F3FFFEF9F0744F41A
:101E50000196685A7F4F7501603B710589F721C073
:101E6000D701A451BE4F40E050E08F3FEFEF9E07F7
:101E700009F4D6C1FA01E60FF71FE455FF4FE491CC
:101E80006D01CA18DB08CE0CDF1CF0E01F01022E2A
:101E900001C0220C0A94EAF7F6016080262820820D
:101EA000BFC180E00E94EC0C8FE090E00E948808A7
:101EB0002196C931D10509F08ECF772011F02F9AE4
:101EC0002D9880E991E00E9488080E948608E091A0
:101ED0005C05F0915D050190F081E02D8CE595E0C9
:101EE000099582E390E00E9488080E948D08811184
:101EF000F8CF82E380936305E9E6F1E0E491809115
:101F00007B00E3FB882480F8912C35E0880C991C39
:101F10003A95E1F78F7D882A80927B00E770E06434
:101F2000E0937C0080917A00806480937A008091B5
:101F30007A0086FDFCCF609178008091790070E096
:101F4000782B072E000C880B990B61157105810504
:101F5000910511F00E943C1290E7C92ED12CE12C82
:101F6000F12C22E0822E912CA12CB12C332433941D
:101F700081E1282E8FB7F89440913E0150913F01A6
:101F800060914001709141018FBF80916405942F51
:101F9000981B80916505882329F09093660510921F
:101FA000650536C120916305921740F49F5F921733
:101FB00008F02EC133BE889513BE2AC13092650544
:101FC0004093640520915F05309160052F5F3F4F7E
:101FD0003093600520935F05E8E5F1E081118FEF14
:101FE000002481938193819381930394D1F710927C
:101FF0006A051092690510926805109267050E94A3
:102000008D0885FD07C00E948D0886FD06C080E012
:1020100090E005C08EEF9FEF02C082E090E0C0919B
:102020000401D0910501C80FD91FD0930501C093B9
:10203000040121E030E0CA33D10514F420E030E09F
:1020400081E090E0C334D10514F080E090E0289F57
:10205000A001299F500D389F500D1124809102013D
:1020600090910301452BA1F08033910539F04F97F2
:1020700041F0809147019091480105C08FEF9FEF9B
:1020800002C081E090E090934801809347010FC027
:10209000109248011092470187971CF080E390E06E
:1020A00002C08FE190E090930301809302010091C0
:1020B0000201109103018091470190914801080F9E
:1020C000191F109303010093020120E047E755E038
:1020D000B801CE010E949807809145019091460178
:1020E000AC014550510921E030E0C417D50714F484
:1020F00020E030E0059641E050E08C179D0714F495
:1021000040E050E0249FC001259F900D349F900D2A
:10211000112421E030E040914301509144014017E7
:10212000510711F020E030E0829FA001839F500D05
:10213000929F500D1124452B31F480910001909114
:10214000010197FF29C00E943712A70196010E9442
:102150005B12DC01CB010896A11DB11D90934601D5
:10216000809345010E943712A50194010E945B12E1
:10217000269E9001279E300D1124C9014F96909301
:1021800044018093430180910001909101010196E7
:10219000909301018093000160914301709144018B
:1021A00021E047E755E080914501909146010E946A
:1021B000980720E045E751E060E070E080E090E0C3
:1021C0000E94980760910001709101012B01770F27
:1021D0006608770877FE14C0E0915805F09159051C
:1021E0000190F081E02D6DE288E595E00995662784
:1021F0007727CB0164197509860997094AE003C05E
:102200004AE0C301B2010E949B0C80E00E94EC0CEA
:1022100040E050E0452B09F4ADCE0E940000A6CE70
:102220002115310581F0FA01E60FF71FE455FF4F44
:10223000E491F0E0042C02C0F595E7950A94E2F7EA
:10224000DC90ED29EC934F5F5F4F119648355105B7
:1022500009F00BCEFDCD0F931F93CF93DF938C012D
:1022600081E090E00E94950880FF32C08AE090E013
:102270000E9495089FEF980F9E3F50F522E330E0B3
:10228000D80150963C932E931F9728E330E0529646
:102290003C932E935197CBE0D0E0D801ED91FC9187
:1022A0000190F081E02D682FC8010995CE010E94B0
:1022B00095082196C131D10581F780E00E94EC0C90
:1022C00088EE93E0DF91CF911F910F910C948808D5
:1022D000DF91CF911F910F91089504970C942B11CA
:1022E000CF92DF92EF92FF920F931F93CF93DF93E2
:1022F0001F92CDB7DEB7182F062FE42E862F880F3A
:102300008E5F99830E94970883E00E949708F12EC0
:10231000C12E9981D92E8C2D8F19801798F4F60132
:10232000E7FE02C0849101C080810E949708182FA7
:1023300080E00E9497088123FFEFCF1ADF0A811106
:10234000EACF01C081E00F90DF91CF911F910F91F3
:10235000FF90EF90DF90CF900895ECE7F5E01382C7
:10236000128288EE93E0A0E0B0E084839583A68398
:10237000B78381E291E0918380838FEF9FEF958710
:102380008487E8E5F5E0138212821186128680E1E7
:10239000838710861782158681E391E0918380837D
:1023A0008BE391E095838483108A1786128A118AC1
:1023B00081E0838B148A858B168A0895EE0FFF1FA8
:1023C0000590F491E02D099481E090E0F8940C944C
:1023D000BE128F929F92AF92BF92CF92DF92EF92F6
:1023E000FF92CF93DF93EC01688179818A819B8191
:1023F000611571058105910521F464E279ED8BE5A4
:1024000097E02DE133EF41E050E00E945B1249017B
:102410005A019B01AC01A7EAB1E40E947A126B0158
:102420007C01ACEEB4EFA50194010E948812DC019E
:10243000CB018C0D9D1DAE1DBF1DB7FF03C00197C5
:10244000A109B04888839983AA83BB83BC01CD01CD
:102450009F77DF91CF91FF90EF90DF90CF90BF906B
:10246000AF909F908F9008950E94E911089582E1A6
:1024700091E00E94E9110895609312017093130195
:1024800080931401909315010895F999FECF92BDA0
:1024900081BDF89A992780B50895262FF999FECF26
:1024A0001FBA92BD81BD20BD0FB6F894FA9AF99A71
:1024B0000FBE01960895052E97FB1EF400940E940E
:1024C000721257FD07D00E948D1207FC03D04EF404
:1024D0000C94721250954095309521953F4F4F4F77
:1024E0005F4F089590958095709561957F4F8F4FC0
:1024F0009F4F08950E94AF12A59F900DB49F900D1D
:10250000A49F800D911D11240895B7FF0C947A1299
:102510000E947A12821B930B0895A1E21A2EAA1B25
:10252000BB1BFD010DC0AA1FBB1FEE1FFF1FA21783
:10253000B307E407F50720F0A21BB30BE40BF50B80
:10254000661F771F881F991F1A9469F76095709509
:10255000809590959B01AC01BD01CF010895A29F8C
:10256000B001B39FC001A39F700D811D1124911D67
:10257000B29F700D811D1124911D0895F894FFCF15
:10258000FFFF30000A00FFFFFFFF00E10000000036
:1025900000000100000000C1808100000000000078
:1025A00000920B0F0CF50BB30BD10BA80B00000026
:0E25B000000306B3052B11FCFF00006D1100A7
:00000001FF
